:1000000037C000005DC000005BC0000059C00000A8
:1000100057C0000055C0000053C0000051C0000090
:100020004FC000004DC000004BC0000049C00000A0
:1000300047C0000045C000000C94451341C00000BB
:100040003FC000003DC000000C94701339C0000098
:1000500037C0000035C0000033C0000031C00000D0
:100060002FC000002DC0000017126A1395149814B9
:1000700011241FBECFEFD8E0DEBFCDBF12E0A0E05D
:10008000B1E0E2EBFCE202C005900D92AA31B107AB
:10009000D9F714E0AAE1B2E001C01D92AB37B10775
:1000A000E1F710E0CEE6D0E004C02297FE010E9406
:1000B000FB14C836D107C9F70E9493140C944D164F
:1000C0009FCF80E090E00895CF92DF92EF92FF9271
:1000D0000F931F93CF93DF936C017A01EB01E60E30
:1000E000F71E00E010E0CE15DF0561F06991D60142
:1000F000ED91FC910190F081E02DC6010995080F6A
:10010000191FF1CFC801DF91CF911F910F91FF907F
:10011000EF90DF90CF90089520E131E0FC01318332
:100120002083089520E131E0FC013183208308958C
:10013000DB010D900020E9F7AD0141505109461B4C
:10014000570BDC01ED91FC910280F381E02D0994C5
:10015000DC01ED91FC910190F081E02D6AE00994C1
:10016000E7CF0F931F93CF93DF93EC01E1DF8C0177
:10017000CE01EEDF800F911FDF91CF911F910F9184
:10018000089580E090E0089580E090E0089580E098
:1001900090E008950895CF93DF93EC01BDDF88E1EF
:1001A00091E09983888348EE53E060E070E04A83F1
:1001B0005B836C837D83DF91CF91089528E131E0EB
:1001C000FC0131832083AECF8EBD0DB407FEFDCF81
:1001D0008EB508958FEFF8CFE0910A01F0910B01F1
:1001E00080818B7F80830895E0910A01F0910B015B
:1001F00080818460808308958CE284B9F5DF83E593
:100200008CBD8DB58E7F8DBD0895813039F020F085
:10021000823051F481E504C080E502C080E505C06C
:100220008CBD8DB5816004C081E58CBD8DB58E7FA0
:100230008DBD0895CF93DF93EC018E81882371F0FB
:100240008F8198859C012F5F3F4F38872F838230A5
:10025000924010F4BFDFF4CFC7DF1E82DF91CF9151
:1002600008950F931F93CF93DF938B0189E090E064
:100270000E946D13EC01A80160E070E00E94BD12C5
:10028000CE010E943012A6DF8F3F71F0CE010E9496
:1002900040128823C1F3209781F0CE010E942013E1
:1002A000CE010E946F1309C0209749F0CE010E9431
:1002B0002013CE010E946F1302C080E001C081E0D4
:1002C000DF91CF911F910F910895CF92DF92FF920E
:1002D0000F931F93CF93DF9300D000D0CDB7DEB73D
:1002E0006C01F62E29833A834B835C83A3DF74DF92
:1002F0006CE271E0C601B5DF8F2D806465DF08E137
:1003000010E05C814B813A812981DA01C901002E1C
:1003100004C0B695A795979587950A94D2F7298337
:100320003A834B835C8350DF0850110929813A815D
:100330004B815C81083F8FEF180739F7FF2029F0C8
:10034000E8E0FE1621F08FEF03C085E901C087E8E1
:100350003BDF10E03FDFF601828787FF04C01F3FCD
:1003600011F01F5FF7CF0F900F900F900F90DF915C
:10037000CF911F910F91FF90DF90CF900895BF9282
:10038000CF92DF92EF92FF920F931F93CF93DF9361
:10039000EC011B8619861E821D8289E090E00E9476
:1003A0006D138C0140ED57E060E070E00E94BD12DB
:1003B000C8010E94301220DF3AE0B32E8FEF04DF35
:1003C000BA94E1F709DF20E030E0A90160E0CE0156
:1003D0007CDFF82E8A8781E0F81639F0C8010E9488
:1003E0004012882381F381E044C02AEA31E040E0F2
:1003F00050E068E0CE0169DF82FF02C0FB860CC0DE
:1004000024E0F22EE7DE8A87FA94E1F78A3A11F0C7
:1004100082E02FC082E08B878B85823031F4C12C43
:10042000D12CE12C90E4F92E03C0C12CD12C760103
:1004300020E030E0A90167E3CE0147DFA701960184
:1004400069E2CE0142DF8A87882339F0C8010E9421
:100450004012882369F388E00CC08B858230F1F468
:1004600020E030E0A9016AE3CE012FDF882369F0A4
:1004700086E08D83B9DE01151105F1F0C8010E94F7
:100480002013C8010E946F1317C0A4DE807C803C3B
:1004900011F483E08B879EDE9DDE9CDEA5DE0115D8
:1004A000110531F0C8010E942013C8010E946F138A
:1004B00081E0ABDEBB24B3948B2DDF91CF911F91F4
:1004C0000F91FF90EF90DF90CF90BF9008950F9322
:1004D0001F93CF93DF938C0189E090E00E946D130E
:1004E000EC014CE251E060E070E00E94BD12CE01F0
:1004F0000E9430126FDEF80182878F3F41F4CE01F7
:100500000E9440128823B1F38FE0F80103C08E3FB0
:1005100059F08DE08583209781F0CE010E94201351
:10052000CE010E946F1309C0209751F0CE010E94A6
:100530002013CE010E946F1303C056DE80E001C07D
:1005400081E0DF91CF911F910F910895CF92DF92BB
:10055000EF92FF920F931F93CF93DF93EC0169010A
:100560000115110509F45DC0C801820F931F813088
:10057000924008F058C08E81882371F0888199815B
:10058000AA81BB81481759076A077B0729F48F8125
:100590009885C816D90600F5488359836A837B83FA
:1005A0008B85833039F0E9E0440F551F661F771FB4
:1005B000EA95D1F79A01AB0161E1CE0186DE88238D
:1005C00019F083E08D832FC0CE0181DF882359F19C
:1005D00018861F8281E08E838F8198858C159D05FA
:1005E00038F4F8DD8F819885019698878F83F4CF52
:1005F0006701E00EF11ECE14DF0429F0EBDDF601F9
:1006000081936F01F8CF8F819885800F911F988714
:100610008F832985222319F08115924010F0CE0195
:1006200009DE81E002C0E0DD80E0DF91CF911F9123
:100630000F91FF90EF90DF90CF900895EF92FF928F
:100640000F931F93790100E012E020E030E07EDF9D
:100650001F910F91FF90EF900895CF92DF92EF924C
:10066000FF920F931F93CF93DF9300D0CDB7DEB7E8
:100670007C01862F49835A83A7DD4981C42E5A8184
:10068000D52E00E010E0F60181916F019DDD0F5F36
:100690001F4F0115F2E01F07B1F78FEF95DD8FEFC8
:1006A00093DD98DDF70182878F71853029F081E134
:1006B00085839ADD80E001C081E00F900F90DF918B
:1006C000CF911F910F91FF90EF90DF90CF90089501
:1006D0000F931F93CF93DF93EC01890141155105CF
:1006E0006105710511F482E12DC08B85833039F0ED
:1006F00099E0440F551F661F771F9A95D1F79A010D
:10070000AB0168E1CE01E1DD882311F084E01AC07D
:10071000A8016EEFCE01A1DF8823A9F068E572E0A1
:10072000CE019FDD811102C085E10CC020E030E0E8
:10073000A9016DE0CE01C9DD811103C04BDD882325
:1007400029F084E18D8350DD80E002C04DDD81E041
:10075000DF91CF911F910F910895CF93DF93EC011B
:100760009C012C5F3F4F41E050E060E070E0898DDC
:100770009A8D0E94F80C8823A1F04D895E896F89BB
:10078000788D452B462B472B71F44C815D816E8112
:100790007F814D8B5E8B6F8B788F8A8180688A8397
:1007A00002C080E001C081E0DF91CF910895CF9237
:1007B000DF92EF92FF921F93CF93DF93EC01CDDF97
:1007C000811102C080E04AC0E98DFA8DCC80DD80C5
:1007D000EE80FF8082E0C81AD108E108F1080584A4
:1007E00004C0CC0CDD1CEE1CFF1C0A94D2F746851D
:1007F000578560897189C40ED51EE61EF71E1481C7
:1008000081E0C81AD108E108F108112359F0C701A5
:10081000B601610F711D811D911D38D7882391F29A
:100820001150F3CFE98DFA8DC12C82E0D82EE12C46
:10083000F12C058404C0CC0CDD1CEE1CFF1C0A94BA
:10084000D2F749895A896B897C894C0D5D1D6E1DD3
:100850007F1D498B5A8B6B8B7C8B81E0DF91CF9115
:100860001F91FF90EF90DF90CF900895CF93DF938B
:10087000EC01462F6C857D858E859F85CDD688239E
:1008800041F0888920E2829FC00111248D5D9D4F37
:1008900002C080E090E0DF91CF9108950F931F9305
:1008A000CF93DF93CDB7DEB760970FB6F894DEBF76
:1008B0000FBECDBF482FFB018BE020E2219381507A
:1008C000E9F7242F392F40E057E010E1F901919129
:1008D0009F01992359F19E3229F45A3069F148E079
:1008E0005AE0F4CFE4E2F1E0DE011196012F01902D
:1008F0000D920A95E1F7FE013196A191AA2319F014
:10090000A913FBCF19C05417B8F0EFEDE90FEE357E
:1009100098F4A1E0A40FFB01E40FF11D4FE9490F8A
:100920004A3108F4905290834A2FD0CF81E0FB01E6
:100930009081903209F480E060960FB6F894DEBFA3
:100940000FBECDBFDF91CF911F910F9108950F93EF
:100950001F93CF93DF93EC018B018B81882311F0E0
:1009600080E03FC0FB0187898031B1F482E08B8356
:100970001D8A1E8A1F8A188E408D518D60E070E09E
:1009800095E0440F551F661F771F9A95D1F7498B45
:100990005A8B6B8B7C8B14C0803211F783E08B8376
:1009A000FB01428D538D648D758D4D8B5E8B6F8BEE
:1009B000788F9E012F5E3F4FC80110D7882381F2A8
:1009C0001A8F098F81E08A831C821D821E821F82FA
:1009D000188619861A861B861C861D861E861F860B
:1009E000188ADF91CF911F910F9108952F923F9216
:1009F0004F925F926F927F928F929F92AF92BF922F
:100A0000CF92DF92EF92FF920F931F93CF93DF93DA
:100A1000EC016B015A018B81811103C08FEF9FEFB5
:100A2000D7C08A8180FFFACF49895A896B897C892E
:100A300088859985AA85BB852501612C712C8A0141
:100A40009B01081B190B2A0B3B0B041515052605EA
:100A5000370518F45A01A81AB90A25011E0124E025
:100A6000220E311C4114510409F47AC0488559857D
:100A70006A857B854A0181E09822EB818A019B018E
:100A8000F9E03695279517950795FA95D1F7898D51
:100A90009A8DE23051F4FC01628D738D848D958DB9
:100AA000600F711F821F931F3DC0FC0174807A94F8
:100AB000702281149104C1F4711016C0452B462B8D
:100AC000472B49F48D899E89AF89B88D8C839D838E
:100AD000AE83BF8309C04C815D816E817F819101AE
:100AE000FAD5882309F49ACFE98DFA8D6C817D813E
:100AF0008E819F816250710981099109058404C02A
:100B0000660F771F881F991F0A94D2F706851785ED
:100B100020893189600F711F821F931F670D711D1E
:100B2000811D911D20E032E0281939093201241578
:100B3000350508F439012A8126FD04C06114F2E06C
:100B40007F0699F500910601109107012091080197
:100B500030910901601771078207930719F425C0C6
:100B6000C50136C0760183019401AB01BC018091BF
:100B7000210290912202EADC882309F44FCFC60CAF
:100B8000D71C04C0E81BF90BCE0EDF1E88859985A3
:100B9000AA85BB85860D971DA11DB11D88879987E4
:100BA000AA87BB87461857085DCF40E035D5882314
:100BB00009F434CFC4018D5D9D4FD6019C01260DF3
:100BC000371DFC01E217F307E9F241914D93FACF8B
:100BD000DF91CF911F910F91FF90EF90DF90CF9019
:100BE000BF90AF909F908F907F906F905F904F904D
:100BF0003F902F900895FF920F931F93CF93DF9311
:100C00001F92CDB7DEB78C01FC018381823018F4CE
:100C100080E090E033C0F80140855185628573859E
:100C2000A5E07695679557954795AA95D1F7F42F46
:100C3000FF70FF2E41E050E0BE016F5F7F4FC801A3
:100C4000D5DE019719F4298130E002C02FEF3FEF84
:100C50002F3F3F4FE9F2F80140855185628573854A
:100C6000415E5F4F6F4F7F4F408751876287738729
:100C7000F0E2FF9EC00111248D5D9D4F0F90DF912A
:100C8000CF911F910F91FF9008954F925F926F92B5
:100C90007F92AF92BF92CF92DF92EF92FF920F932B
:100CA0001F93CF93DF93EC016A017B012B812223F9
:100CB00009F456C089899A89AB89BC89841795073C
:100CC000A607B70708F44CC04DC088859985AA854A
:100CD000BB85E98DFA8DE585F0E03996AC01BD0163
:100CE00041505109610971090E2E04C0769567952E
:100CF000579547950A94D2F797018601015011093B
:100D00002109310904C03695279517950795EA956D
:100D1000D2F70417150726073707A8F58D899E898E
:100D2000AF89B88D8C839D83AE83BF832801390141
:100D30005E0184E0A80EB11C4114510461047104E9
:100D400059F14C815D816E817F819501898D9A8DEC
:100D5000C2D491E0491A5108610871088111ECCFA1
:100D600080E01FC02230C1F0C114D104E104F104BD
:100D700009F0ABCF1C821D821E821F821886198645
:100D80001A861B860DC0892B8A2B8B2B39F2041BEC
:100D9000150B260B370BCACFC886D986EA86FB8689
:100DA00081E0DF91CF911F910F91FF90EF90DF9045
:100DB000CF90BF90AF907F906F905F904F900895CD
:100DC0000F931F93CF93DF93EC018B818823B9F1AD
:100DD0008A8187FF2FC061E0CE0148DD8C0100973A
:100DE00071F18B81823048F449895A896B897C89F9
:100DF000F801448F558F668F778F4D895E896F8993
:100E0000788DF801538F428F758B648BE0911A02B5
:100E1000F0911B02309759F0B8016A5E7F4FC8010C
:100E200048960995F801808D918D938B828B8A81EC
:100E30008F778A83DF91CF911F910F91B4C380E0A8
:100E4000DF91CF911F910F910895CF93DF93EC0124
:100E5000B7DF882319F01B8281E001C080E0DF91B9
:100E6000CF9108954F925F926F927F92AF92BF920F
:100E7000CF92DF92EF92FF920F931F93CF93DF9366
:100E800000D000D0CDB7DEB75C016A017B01FC0168
:100E900083818130E9F4828181FF1AC0F501818963
:100EA0009289A389B48984179507A607B70780F0AC
:100EB000892B8A2B8B2B09F472C0F5014084518455
:100EC00062847384B701A601C501DFDE811102C00F
:100ED00080E066C0F501818D928DC114D104E104DA
:100EE000F10469F4458956896789708D92D6882303
:100EF00079F3F501158A168A178A108E37C0F50125
:100F000044815581668177819E012F5F3F4FE3D3F6
:100F10008823F1F249815A816B817C81F501818DB1
:100F2000928DFC012789203129F408EF1FEF20E082
:100F300030E004C008EF1FEF2FEF3FE040175107EC
:100F40006207730798F465D6882309F4C1CFF501C9
:100F500044815581668177810FEF1FEF2FEF3FE0CE
:100F6000818D928DA5D4882309F4B2CFF501C18A71
:100F7000D28AE38AF48A828180688283C50120DF75
:100F8000882309F4A5CFB701A6014C145D046E04B3
:100F90007F0410F4B301A201C50177DE01C081E036
:100FA0000F900F900F900F90DF91CF911F910F91A5
:100FB000FF90EF90DF90CF90BF90AF907F906F90B9
:100FC0005F904F900895FF920F931F93CF93DF93FD
:100FD000EC01F42E80E2689FF0011124ED5DFD4FDD
:100FE0008385817129F0842F827411F080E051C0D3
:100FF000688B8091060190910701A0910801B09142
:1010000009018C879D87AE87BF874489558960E039
:1010100070E0BA0155274427028D138D20E030E09F
:10102000402B512B622B732B4D8B5E8B6F8B788FEC
:101030008385887151F4048D158D268D378D098B2C
:101040001A8B2B8B3C8B81E00BC0803179F69E0193
:101050002F5E3F4F898D9A8DC1D3882339F284E06A
:101060008B838F2D8F708A831C821D821E821F822C
:10107000188619861A861B86F6FE0AC040E050E0E4
:10108000BA01CE01DF91CF911F910F91FF90EACE6F
:1010900081E0DF91CF911F910F91FF900895AF9262
:1010A000BF92CF92DF92EF92FF920F931F93CF9355
:1010B000DF93CDB7DEB72B970FB6F894DEBF0FBE28
:1010C000CDBF7C016B01CA01B22EF7012381211132
:1010D000B3C0BE016F5F7F4FE1DB882309F4ACC072
:1010E000F601818D928DF701928F818FF601148226
:1010F0001582168217821086118612861386A12CFD
:10110000F601008511852285338581899289A3891D
:10111000B489081719072A073B07E0F545E036951B
:101120002795179507954A95D1F70F70C60163DD8E
:10113000009709F481C0FC012081222311F0253E93
:10114000B9F4A1100EC0F701008B40910601509137
:1011500007016091080170910901448755876687EE
:101160007787FC018081AA24A3948111C9CF12C082
:101170004BE050E0BC01CE0101960E942616892B5F
:1011800009F0BECF8B2D8073803309F455C04B2DF1
:10119000602F4FC08B2D8271823109F04DC0AA2083
:1011A00039F061E0C70162DB8C01009771F444C043
:1011B000F6018381823009F43FC0C601F8DA882342
:1011C000D9F1F701108A03E212E080E2F8011192EE
:1011D0008A95E9F78BE0FE013196D80101900D92D6
:1011E0008A95E1F7E0911A02F0911B02309739F0ED
:1011F000B801625F7F4FC8014096099509C081E23E
:1012000098E2F801918B808B80E098E09787868741
:10121000F80180899189938B828B918F808F86854D
:101220009785978B868BBFD1882331F04B2DF701A3
:101230006089C701C8DE01C080E02B960FB6F89424
:10124000DEBF0FBECDBFDF91CF911F910F91FF90F9
:10125000EF90DF90CF90BF90AF9008952F923F9284
:101260004F925F926F927F928F929F92AF92BF92B6
:10127000CF92DF92EF92FF920F931F93CF93DF9362
:1012800000D000D01F92CDB7DEB78C017B016A0180
:10129000DC0113968C918130E1F4F801828181FFA9
:1012A00018C082FF19C0D80151964D915D916D9182
:1012B0007C91549718968D919D910D90BC91A02D85
:1012C00084179507A607B70739F0C801DEDC81113E
:1012D00003C080E090E03FC156017FC0F801818DDE
:1012E000928DDC011496BC91B1502A013B0129E09A
:1012F00076946794579447942A95D1F7B421BD8387
:101300003A01E1E07E22BB2309F473C080E092E061
:101310008619970945018A159B0508F44C01D801E7
:101320005996ED91FC915A9714962D903D904D90C1
:101330005C901797B2E02B1A3108410851080584D8
:1013400004C0220C331C441C551C0A94D2F7868519
:101350009785A089B189280E391E4A1E5B1EED8132
:101360002E0E311C411C511C8114F2E09F0609F025
:1013700086C08091060190910701A0910801B0916B
:10138000090182159305A405B50559F48FEF9FEF68
:10139000DC018093060190930701A0930801B093AC
:1013A00009019701B201A1018091210290912202CD
:1013B0008FD9882309F48DCF9EEFF91AA818B908A0
:1013C000F80180859185A285B385880D991DA11DA1
:1013D000B11D80879187A287B387D80118964D9158
:1013E0005D916D917C911B97A114B10409F076CFAA
:1013F00087C06114710409F089CFD80114964D910A
:101400005D916D917C9117974115510561057105AD
:1014100059F455968D919D910D90BC91A02D0097FA
:10142000A105B10531F520C09E012F5F3F4F53D17B
:10143000882309F44FCF89819A81AB81BC81F8015F
:10144000218D328DF9012789203129F448EF5FEF92
:1014500060E070E004C048EF5FEF6FEF7FE084175B
:101460009507A607B70728F0C80177D981114ECF95
:1014700030CFF80184839583A683B78347CF611467
:10148000710421F5D80118964D915D916D917C9173
:101490001B9751968D919D910D90BC91A02D481751
:1014A00059076A077B0790F07ED0882309F411CF93
:1014B00020920601309207014092080150920901E2
:1014C0008091200281608093200207C041E0C20128
:1014D000B101A2D0882309F4FCCEC3018D5D9D4FDC
:1014E000D7019C01280D391DFC01E217F30719F003
:1014F0004D914193FACFE81BF90BEE0EFF1E5ECF24
:1015000051968D919D910D90BC91A02DF801228155
:1015100084179507A607B70738F4418B528B638B66
:10152000748B206822830CC080911A0290911B0258
:10153000892B31F0C114D10419F02068F8012283FD
:10154000D80112968C9183FF05C0C80139DC88232D
:1015500009F4BFCEC6010F900F900F900F900F901F
:10156000DF91CF911F910F91FF90EF90DF90CF907F
:10157000BF90AF909F908F907F906F905F904F90B3
:101580003F902F900895CF93DF931F92CDB7DEB792
:10159000698341E050E0BE016F5F7F4F5FDE0F90D7
:1015A000DF91CF91089580912002882389F14091A5
:1015B000060150910701609108017091090123E231
:1015C00032E0809121029091220282D8882311F189
:1015D00040911C0250911D0260911E0270911F02E9
:1015E000411551056105710589F023E232E08091D2
:1015F0002102909122026CD8882361F010921C0283
:1016000010921D0210921E0210921F0210922002D0
:1016100081E0089580E00895CF92DF92EF92FF92EB
:10162000CF936B017C01C42F80910601909107013B
:10163000A0910801B09109018C159D05AE05BF056B
:10164000C9F0B1DF811102C080E01AC023E232E0AC
:10165000B701A60180912102909122020E941E03EF
:10166000882391F3C0920601D0920701E09208010D
:10167000F0920901809120028C2B8093200281E05E
:10168000CF91FF90EF90DF90CF900895CF92DF92AF
:10169000EF92FF926B017C0186DF8823B1F0E3E2D9
:1016A000F2E0119284E0E332F807D9F7C092060124
:1016B000D0920701E0920801F09209018091200286
:1016C00081608093200281E001C080E0FF90EF9074
:1016D000DF90CF9008958F929F92AF92BF92CF925A
:1016E000DF92EF92FF920F931F93CF93DF938C01C2
:1016F0006A017B01E901FC0181859285A385B4859E
:101700000196A11DB11D84179507A607B70710F410
:1017100080E057C0F80143895489658976898789B3
:10172000803129F4BB27AF2D9E2D8D2D09C0D70107
:10173000C60127E0B695A795979587952A95D1F785
:101740004C015D01840E951EA61EB71EC501B40195
:101750008090060190900701A0900801B0900901C7
:10176000681579058A059B0589F4F8018789803118
:1017700091F4DD24EE24FF24F601EE0FFF1FED5D52
:10178000FD4F80819181A0E0B0E016C040E044DFD1
:101790008111EBCFBDCFE894C7F8DD24EE24FF2400
:1017A000F601EE0FFF1FEE0FFF1FED5DFD4F808175
:1017B0009181A281B381BF7088839983AA83BB83FF
:1017C00081E0DF91CF911F910F91FF90EF90DF901B
:1017D000CF90BF90AF909F908F9008954F925F925F
:1017E0006F927F92AF92BF92CF92DF92EF92FF9271
:1017F0000F931F93CF93DF9300D000D0CDB7DEB708
:101800008C0149835A836B837C835901C12CD12C71
:101810007601412C42E0542E612C712C49815A8171
:101820006B817C819E012F5F3F4FC80154DF88236D
:1018300059F1D301C201F801058404C0880F991F32
:10184000AA1FBB1F0A94D2F7C80ED91EEA1EFB1EA0
:1018500049815A816B817C818789803129F488EFA5
:101860009FEFA0E0B0E004C088EF9FEFAFEFBFE0D4
:10187000481759076A077B0788F2F501C082D182B1
:10188000E282F38281E001C080E00F900F900F9020
:101890000F90DF91CF911F910F91FF90EF90DF900C
:1018A000CF90BF90AF907F906F905F904F900895D2
:1018B0004F925F926F927F928F929F92AF92BF9260
:1018C000CF92DF92EF92FF920F931F93CF93DF930C
:1018D000EC016A017B0128013901423051056105A3
:1018E000710508F473C049855A856B857C854F5F07
:1018F0005F4F6F4F7F4F4C155D056E057F0508F4F8
:1019000065C08B889C88AD88BE888F89803129F41A
:1019100077276F2D5E2D4D2D09C0B701A601E7E099
:101920007695679557954795EA95D1F7840E951E5C
:10193000A61EB71E40910601509107016091080153
:101940007091090184169506A606B70671F48F8971
:10195000803191F4DD24EE24FF24F601EE0FFF1F09
:10196000ED5DFD4F5182408217C040E0C501B401DA
:1019700053DE8111ECCF2AC0E894C7F8DD24EE24B1
:10198000FF24F601EE0FFF1FEE0FFF1FED5DFD4F71
:1019900040825182628273828091200281608093B2
:1019A00020028A89823080F08D819E81AF81B88546
:1019B000880D991DAA1DBB1D80931C0290931D02CA
:1019C000A0931E02B0931F0281E001C080E0DF916E
:1019D000CF911F910F91FF90EF90DF90CF90BF902C
:1019E000AF909F908F907F906F905F904F900895F1
:1019F0002F923F924F925F926F927F929F92AF92FF
:101A0000BF92CF92DF92EF92FF920F931F93CF93EB
:101A1000DF93CDB7DEB760970FB6F894DEBF0FBE89
:101A2000CDBF5C014D875E876F87788B1901D90127
:101A30004D905D906D907C9041145104610471044F
:101A400031F0BFEF4B1A5B0A6B0A7B0A10C0FC0136
:101A50004080518062807380992493940D851E8507
:101A60002F853889013011052105310509F0912CA8
:101A7000D50119962D913D914D915C911C972F5F49
:101A80003F4F4F4F5F4F29873A874B875C877301E2
:101A900062011D821E821F821886F5018185928552
:101AA000A385B4850D811E812F81388508171907FC
:101AB0002A073B0708F054C029853A854B855C8589
:101AC0002C153D054E055F0550F4A2E0CA2ED12C21
:101AD000E12CF12CB2E04B2E512C612C712C9E018B
:101AE0002F5F3F4FB701A601C501F5DD8823C1F186
:101AF00049815A816B817C81D701C6010196A11D64
:101B0000B11D452B462B472B19F02C013D010FC071
:101B1000AC01BD0144195509660977090D851E857B
:101B20002F853889401751076207730779F02D8197
:101B30003E814F8158852F5F3F4F4F4F5F4F2D8321
:101B40003E834F8358876C017D01A7CF0FEF1FEFB6
:101B50002FEF3FE0B701A601C501AADE811117C032
:101B600080E03FC0D701C6010197A109B1098D836B
:101B70009E83AF83B88797018601AC01BD01C50183
:101B800097DE882369F3CD80DE80EF80F8844C14E3
:101B90005D046E047F0430F3D1014D915D916D9130
:101BA0007C91411551056105710599F4F10140825F
:101BB000518262827382992099F0FFEF4F1A5F0A77
:101BC0006F0A7F0AD5014D925D926D927C921397B8
:101BD00007C093018201C5016BDE8111E7CFC0CF41
:101BE00081E060960FB6F894DEBF0FBECDBFDF91E7
:101BF000CF911F910F91FF90EF90DF90CF90BF900A
:101C0000AF909F907F906F905F904F903F902F90FC
:101C10000895AF92BF92CF92DF92EF92FF920F930F
:101C20001F93CF93DF9300D000D0CDB7DEB75C0118
:101C30006A017B0182E090E0A0E0B0E0F5018083E2
:101C40009183A283B3839E012F5F3F4FB701A6010B
:101C5000C50141DD882309F100E010E09801B701DA
:101C6000A601C50125DE8823C1F0C980DA80EB809A
:101C7000FC80F5018789803129F488EF9FEFA0E08F
:101C8000B0E004C088EF9FEFAFEFBFE0C816D90601
:101C9000EA06FB06C0F281E001C080E00F900F90E1
:101CA0000F900F90DF91CF911F910F91FF90EF90C8
:101CB000DF90CF90BF90AF9008958F929F92AF9298
:101CC000BF92CF92DF92EF92FF920F931F93CF9329
:101CD000DF93EC01142F70932202609321024423BE
:101CE00039F1453010F080E0ECC040E060E070E099
:101CF000CB0192DC8823B9F320E1129FF00111247B
:101D0000EF52FC4F80818F7771F784859585A6858A
:101D1000B78584369105A105B10528F3C084D18427
:101D2000E284F384C114D104E104F10421F4DBCF93
:101D3000C12CD12C760140E0C701B6016DDC8823AF
:101D400091F280912E0290912F028115924059F6C6
:101D500030913302332339F2809131029091320273
:101D6000892B09F4C0CF20913002222309F4BBCF84
:101D70003A8B2C831D8630E041E050E06D85062FC4
:101D8000CA01062E02C0880F991F0A94E2F728178D
:101D9000390731F081E0860F8D87683078F3A3CF63
:101DA0002091390230913A022115310519F040E0B5
:101DB00050E008C02091470230914802409149020A
:101DC00050914A022D833E834F8358878091310280
:101DD0009091320246015701880E991EA11CB11C38
:101DE0008B8A9C8AAD8ABE8AE0913402F0913502DA
:101DF000F98FE88FA0913302B0E0A4D5680D791D6A
:101E00008A1D9B1D6A8F7B8F8C8F9D8F15E0EE0F37
:101E1000FF1F1A95E1F7E150FE4FEF2FFF27E695E0
:101E2000DC01CB018E0F9F1FA11DB11D8E879F87E7
:101E3000A88BB98B80903602909037028114910460
:101E400019F0A12CB12C08C080904302909044025C
:101E5000A0904502B0904602A7019601281B390BBD
:101E60004A0B5B0BDA01C901880D991DAA1DBB1D28
:101E700004C0B695A795979587950A95D2F7898757
:101E80009A87AB87BC87853F3FE09307A105B105E3
:101E900010F48CE014C0853F9F4FA105B10510F4EC
:101EA00080E10DC080914F0290915002A0915102AB
:101EB000B09152028A8F9B8FAC8FBD8F80E28F8B47
:101EC00081E0DF91CF911F910F91FF90EF90DF9014
:101ED000CF90BF90AF909F908F900895CF93DF9356
:101EE0001F92CDB7DEB76983DC01ED91FC910280D2
:101EF000F381E02D41E050E0BE016F5F7F4F099517
:101F00000F90DF91CF910895FC0183899489009708
:101F100009F0A4C980E090E00895FC0183899489C8
:101F2000009711F00C94E0060895CF93DF931F9271
:101F3000CDB7DEB741E050E0BE016F5F7F4F0E943A
:101F4000F604019719F4898190E002C08FEF9FEFAA
:101F50000F90DF91CF910895FC01838994890097B8
:101F600009F0E3CF8FEF9FEF08950F931F93CF9367
:101F7000DF938C01FC01838994890097B1F0D5DF50
:101F8000EC018F3FFFEF9F0799F0F8018389948957
:101F9000FC01408551856285738541505109610975
:101FA00071090E944506CE0105C080E090E002C0A4
:101FB0008FEF9FEFDF91CF911F910F910895EF92D7
:101FC000FF920F931F93CF93DF93EC018B017A0164
:101FD0000E94CB0080E491E0998388838BE190E0BC
:101FE0000ED59C8B8B8B009771F02BE1F801DC01F7
:101FF00001900D922A95E1F74CE050E0B701CE0137
:1020000006963CD61A8ADF91CF911F910F91FF90CF
:10201000EF900895CF93DF93EC010E94CB0080E412
:1020200091E0998388831C8A1B8A1E82DF91CF915D
:102030000895FC0183899489009711F00C9445065A
:1020400080E00895DC015396ED91FC915497309710
:1020500029F0608571858285938508956FEF7FEF04
:10206000CB010895DC015396ED91FC915497309784
:1020700029F06189728983899489089560E070E00C
:10208000CB010895CF92DF92EF92FF92CF93DF932F
:10209000EC018B899C89892BC9F0CE01E3DF6B01B0
:1020A0007C01CE01CFDFA7019601261B370B480B21
:1020B000590BDA01C901811530E89307A105B10573
:1020C00038F08FEF9FE7A0E0B0E002C080E090E042
:1020D000DF91CF91FF90EF90DF90CF900895CF9355
:1020E000DF93EC018B899C89009739F00E942507CA
:1020F0008B899C891CD51C8A1B8ADF91CF910895FE
:10210000DC015396ED91FC915497309721F081E0DA
:102110009381911101C080E00895CF93DF93EC018A
:102120000E948C0088E391E0998388831B82DF9171
:10213000CF9108950F931F93CF93DF93EC010E94EB
:10214000BF01811102C080E01BC08E01045F1F4FE0
:1021500041E0BE01C801B1DD882359F0B801CE01CC
:102160008A960E94A70491E0811101C090E0892F16
:1021700007C040E0BE01C801A0DD882321F3EECFF7
:10218000DF91CF911F910F910895FC01DB0188E34E
:1021900091E09183808312968C911297828313969B
:1021A0008C911397838314964D915D916D917C91E1
:1021B0001797448355836683778318964D915D9175
:1021C0006D917C911B9740875187628773871C961E
:1021D0004D915D916D917C911F97448755876687DE
:1021E000778750968C915097808B51964D915D9149
:1021F0006D917C915497418B528B638B748B559668
:102200004D915D916D917C915897458B568B678B65
:10221000708F59968D919C915A97928F818F0895C6
:102220004F925F926F927F928F929F92AF92BF92E6
:10223000CF92DF92EF92FF920F931F93CF93DF9392
:10224000CDB7DEB7C354D1090FB6F894DEBF0FBEC9
:10225000CDBF7C015A014901665D7F4F6E018CE163
:10226000C80ED11CC60191DFFE0131963F01CF019E
:1022700054DF85015C2C4D2C6FE270E0C801F3D473
:102280006C010097B9F1F80180818F3219F40F5F6A
:102290001F4FF2CF8C2D801B8D3008F08CE0C82EA4
:1022A000D12CA601B801CE01C796E8D4E7E3F0E04F
:1022B000EC0FFD1FEC0DFD1D1082C3010E942507D0
:1022C00021E0AE01495C5F4F652D742DC3010E9472
:1022D0004F08811103C0C70120DF15C00C0D1D1D63
:1022E000852D942D0E942507C201562C472C692E5E
:1022F000782EC2CF0A191B09F40111830083652DC2
:10230000742DC70142DFC701CD5BDF4F0FB6F894D4
:10231000DEBF0FBECDBFDF91CF911F910F91FF9018
:10232000EF90DF90CF90BF90AF909F908F907F9075
:102330006F905F904F900895BF92CF92DF92EF928F
:10234000FF920F931F93CF93DF93CDB7DEB7C355A3
:10235000D1090FB6F894DEBF0FBECDBF7C016A0174
:10236000B22E9E012E5A3F4FCE01C79659DF64967A
:102370000EAD1FAD64970C0D1D1DF80180818111FC
:1023800009C0BE01695C7F4FCE010196FEDE4CE4C0
:1023900051E036C0CE014C96C0DE8AAD811103C03B
:1023A000C70138DE32C082502B2DA801823048F49C
:1023B0006DE474E0CE014C960E944F0881110EC06E
:1023C000EFCFBE01695C7F4FCE014C960E944F0853
:1023D000882331F3CE01C7960E9425078B2D867086
:1023E00041F04DA55EA56FA578A9CE014C960E943F
:1023F0004506BE01645E7F4FCE010196C6DEA80190
:10240000BE016F5F7F4FC701DADDC701CD5ADF4FD5
:102410000FB6F894DEBF0FBECDBFDF91CF911F91F5
:102420000F91FF90EF90DF90CF90BF9008951092A2
:1024300028041092290410922C0410922E0482E099
:1024400090E0A0E0B0E080932F0490933004A0933C
:102450003104B0933204109246048DE494E05DCED2
:10246000FC014181528163817481452B462B472BAE
:1024700031F081E0808315821682178210860895DC
:10248000FC0181E09081923009F080E008950F9383
:102490001F93FC0180818130B9F4458156816781A9
:1024A00070854F5F5F4F6F4F7F4F458356836783C4
:1024B000708701811281238134814017510762079F
:1024C000730711F482E080831F910F910895FC013E
:1024D0001182108282E084BD83E085BD8AEF87BDD2
:1024E00010926E0078940895EF92FF920F931F93CD
:1024F000CF93DF93EC017B0161157105B9F1888100
:102500009981019681382FE3920718F4880F991F5B
:1025100002C08FEF9FEFE2D08C01DC0120E030E0C1
:10252000488159818A819B812417350764F4F90118
:10253000EE0FFF1FE80FF91F808191818D939D930E
:102540002F5F3F4FEDCFCBD01B830A83E881F9810A
:10255000EE0FFF1FE00FF11FF182E0828881998169
:1025600001969983888382E080936E00DF91CF91FA
:102570001F910F91FF90EF900895FC01108241830D
:10258000528363837483BC018AE694E0ADCFCF921B
:10259000DF92EF92FF920F931F93CF93DF93EC01A3
:1025A0008B016115710509F442C0888199810097FA
:1025B00009F43DC0019799838883892B11F4109207
:1025C0006E008881998181382FE3920718F4880F73
:1025D000991F02C08FEF9FEF81D07C016C0120E03A
:1025E00030E0488159818A819B8124173507E4F4C2
:1025F000F901EE0FFF1FE80FF91F608171810617C7
:10260000170749F4440F551F480F591FDA014D9120
:102610005C915183408340815181F60141935193F4
:102620006F012F5F3F4FDDCF5AD0EA82FB82DF91EF
:10263000CF911F910F91FF90EF90DF90CF90089571
:10264000BC018AE694E0A3CF0F931F93CF93DF934F
:102650008C01C0E0D0E0F80180819181C817D907D2
:102660007CF4CE01880F991FD8011296ED91FC9150
:102670001397E80FF91F8081918109DF2196EBCF35
:10268000DF91CF911F910F9108951F920F920FB676
:102690000F9211242F933F934F935F936F937F93E8
:1026A0008F939F93AF93BF93EF93FF938AE694E04A
:1026B000CBDFFF91EF91BF91AF919F918F917F9170
:1026C0006F915F914F913F912F910F900FBE0F909F
:1026D0001F9018958AE694E0FACE91C190C127C266
:1026E0001F920F920FB60F9211242F933F934F9387
:1026F0005F936F937F938F939F93AF93BF93EF936A
:10270000FF938091C60080936E04E0916F04F09176
:102710007004309709F00995FF91EF91BF91AF9147
:102720009F918F917F916F915F914F913F912F91E9
:102730000F900FBE0F901F901895CF93DF93EC0171
:102740000E948C0082E591E09983888340E855E2FD
:1027500060E070E04A835B836C837D831092700439
:1027600010926F041092C5008FEC8093C400E0ECCF
:10277000F0E080818260808388E18093C10086E000
:102780008093C200DF91CF9108959A01AB01FC01C3
:10279000228333834483558360E874E88EE190E0BC
:1027A000FDD0215031091092700410926F043093C3
:1027B000C5002093C400E0ECF0E08081826080835B
:1027C00088E18093C10086E08093C20008958091E3
:1027D000C00085FFFCCF6093C6000895F8DF81E05C
:1027E00090E00895EF92FF920F931F93CF93DF93A2
:1027F000CDB7DEB7C55BD1090FB6F894DEBF0FBE0B
:10280000CDBF40E855E260E070E081E794E0BDDFD5
:1028100066E571E081E794E00E94B00083E294E015
:1028200089DC811107C06EE671E081E794E00E94C7
:10283000B1006BC06AE871E081E794E00E94B100EA
:1028400023E14CE951E063E274E0CE018F559F4FE4
:1028500073DDCE018F559F4F53DC882309F442C0AE
:1028600068EA71E081E794E00E94B10040E050E046
:10287000BA01CE018F559F4FDCDB46E350E064EE9A
:1028800071E0CE018F559F4F3FDB00E010E0E12C5F
:1028900088EFF82EFE01319680E090E09C01202B1D
:1028A000312B20FD03C0F182E08202C01182108230
:1028B000019632968035910589F740EA50E0BE01D5
:1028C0006F5F7F4FCE018F559F4F1EDB0F5F1F4FF6
:1028D0000C331105F9F6CE018F559F4F00DC6AEBE2
:1028E00071E002C06AEC71E081E794E00E94B100FF
:1028F00080E491E0CF55DF4F99838883C15AD0405F
:10290000CE018F559F4F0E94DE00CB54DF4F0FB694
:10291000F894DEBF0FBECDBFDF91CF911F910F9115
:10292000FF90EF9008955EDFFFCF81E794E005CF41
:1029300082E591E0909372048093710481E794E0C2
:102940000C94920047D0A59F900DB49F900DA49F2A
:10295000800D911D11240895A1E21A2EAA1BBB1B04
:10296000FD010DC0AA1FBB1FEE1FFF1FA217B3075B
:10297000E407F50720F0A21BB30BE40BF50B661F71
:10298000771F881F991F1A9469F760957095809535
:1029900090959B01AC01BD01CF010895052E97FBD9
:1029A00016F400940FD057FD05D0D6DF07FC02D0F7
:1029B00046F408C050954095309521953F4F4F4FB4
:1029C0005F4F089590958095709561957F4F8F4FDB
:1029D0009F4F0895A29FB001B39FC001A39F700DA8
:1029E000811D1124911DB29F700D811D1124911D17
:1029F0000895EE0FFF1F0590F491E02D0994CF93F9
:102A0000DF938230910510F482E090E0E091790448
:102A1000F0917A0420E030E0A0E0B0E0309739F1A6
:102A20004081518148175907B8F04817590771F488
:102A300082819381109729F013969C938E9312971D
:102A40002CC090937A048093790427C02115310516
:102A500031F04217530718F0A901DB0101C0EF0163
:102A60009A01BD01DF010280F381E02DD7CF21154E
:102A70003105F9F0281B390B2430310580F48A81A7
:102A80009B816115710521F0FB019383828304C052
:102A900090937A0480937904FE01329644C0FE013B
:102AA000E20FF31F819391932250310939832883D8
:102AB0003AC02091770430917804232B41F420917F
:102AC0000201309103013093780420937704209120
:102AD0000001309101012115310541F42DB73EB7B8
:102AE0004091040150910501241B350BE0917704BE
:102AF000F0917804E217F307A0F42E1B3F0B281780
:102B0000390778F0AC014E5F5F4F2417350748F066
:102B10004E0F5F1F509378044093770481939193F5
:102B200002C0E0E0F0E0CF01DF91CF910895CF93B4
:102B3000DF93009709F487C0FC0132971382128259
:102B4000C0917904D0917A04209781F42081318159
:102B5000280F391F8091770490917804821793078A
:102B600079F5F0937804E09377046DC0DE0120E0FE
:102B700030E0AE17BF0750F412964D915C91139759
:102B80009D014115510509F1DA01F3CFB383A28309
:102B900040815181840F951F8A179B0771F48D9195
:102BA0009C911197840F951F0296918380831296B2
:102BB0008D919C911397938382832115310529F47C
:102BC000F0937A04E09379043EC0D9011396FC9304
:102BD000EE9312974D915D91A40FB51FEA17FB0775
:102BE00079F480819181840F951F0296D901119605
:102BF0009C938E938281938113969C938E931297CC
:102C0000E0E0F0E08A819B81009719F0FE01EC0181
:102C1000F9CFCE01029628813981820F931F20912E
:102C20007704309178042817390769F4309729F42C
:102C300010927A041092790402C013821282D09307
:102C40007804C0937704DF91CF910895FB01DC01F4
:102C500004C08D910190801921F441505040C8F773
:102C6000881B990B0895FC018191861721F0882318
:102C7000D9F7992708953197CF010895FB01DC0119
:102C80004150504048F001900D920020C9F701C01A
:102C90001D9241505040E0F7089510E0CEE6D0E09C
:102CA00003C0FE01A8DE2296C037D107D1F7F89401
:022CB000FFCF54
:102CB20000007B042000FFFFFFFF25000000000052
:102CC200610064000000000061006400C100C400F3
:102CD200C700CA007C3C3E5E2B3D3F2F5B5D3B2C18
:102CE2002A225C0000000000C30A64000000000009
:102CF2006E0F840F4210AC0FB50F8D0F2F00000026
:102D02000000EE136400496E697469616C697A6946
:102D12006E6720534420636172642E2E2E0043613D
:102D22007264206661696C65642C206F72206E6F1C
:102D3200742070726573656E7400636172642069D9
:102D42006E697469616C697A65642E00696D616788
:102D5200656E322E626D7000707265706172616EA6
:102D6200646F20696D6167656E00696D6167656E8C
:102D720020636F6D706C657461006572726F722092
:102D82006F70656E696E6720646174616C6F672E27
:102D920074787400424DB625000000000000360031
:102DA200000028000000500000003C00000001006C
:102DB200100000000000802500000000000000005C
:0A2DC2000000000000000000000007
:00000001FF
